:020000040800F2
:10000000181F00209115000899480008A54800080D
:10001000B1480008BD480008C948000800000000B9
:10002000000000000000000000000000D5480008AB
:10003000E148000800000000ED480008F119000840
:10004000ED150008ED150008ED150008ED15000888
:10005000ED150008ED150008ED150008ED15000878
:10006000ED150008ED150008ED150008ED15000868
:10007000ED150008ED150008ED150008ED15000858
:10008000ED150008ED150008ED150008ED15000848
:10009000ED150008ED150008ED150008ED15000838
:1000A000ED150008ED150008ED150008ED15000828
:1000B000ED1500086D1A0008B11A0008ED150008CA
:1000C000ED150008ED150008ED150008ED15000808
:1000D000ED150008ED150008311A0008ED150008AF
:1000E000ED150008ED15000809490008ED15000898
:1000F000291B0008ED150008ED150008ED15000896
:10010000ED150008ED150008ED1A0008ED150008C2
:10011000ED150008ED150008ED150008ED150008B7
:10012000ED150008ED150008ED150008ED150008A7
:10013000ED150008ED150008ED150008ED15000897
:10014000ED150008ED150008ED150008F948000848
:10015000ED150008ED150008ED150008ED15000877
:10016000ED150008ED150008ED150008ED15000867
:10017000ED150008ED150008ED150008ED15000857
:10018000ED150008ED15000880B485B000AF78606B
:100190000023FB607B68DB684FF0FF325A607B68AE
:1001A000DB684FF0FF325A61FB7B43F08003FB7347
:1001B0007B7B43F008037B737B68DB68FA689A619A
:1001C0001437BD465DF8047B704700BF80B586B02C
:1001D00000AF78600023FB7400237B610023FB6089
:1001E000032005F0A1F87B68DB681B69FB607B6975
:1001F00001337B617A69174B9A4201D9002324E0CD
:10020000FB68DB0FDBB2002BEAD000237B61FB68CD
:1002100043F00103FB607B68DB68FA681A617B6866
:10022000DB681B69FB607B6901337B617A69094B81
:100230009A4200D905E0FB6803F00103DBB2012B11
:10024000EDD0032005F070F8FB7C18461837BD464A
:1002500080BD00BF400D030080B489B000AFF860DE
:10026000B960FA71BB800023FB76FB68DB78002B5A
:1002700022D100237B610023FB61BB880333002B69
:1002800000DA03339B107B61FB79FA6832339B0001
:1002900013449B683B610023FB6109E0BB681A685B
:1002A0003B691A60FB690133FB61BB680433BB60C7
:1002B000FA697B699A42F1D3FB7E18462437BD4622
:1002C0005DF8047B704700BF80B489B000AFF86070
:1002D000B9601346FB800023FB61FB880333002BCE
:1002E00000DA03339B10BB61FB68D3F8D0307B612D
:1002F0000023FB6109E07B691A68BB681A60FB692F
:100300000133FB61BB680433BB60FA69BB699A4285
:10031000F1D3BB6818462437BD465DF8047B7047AF
:1003200080B487B000AF78600B46FB7000233B6160
:100330000023FB737B680022DA707B6801229A70CD
:100340007B6840229A80FB78012B13D14FF0A043A9
:100350003B617B680122DA727B6808221A707B6835
:1003600004225A707B684FF4A072DA807B68022204
:100370001A7211E0FB78002B0ED1454B3B617B6874
:100380000022DA727B680C221A707B6806225A708F
:100390007B684FF4A062DA803A697B68DA603B6977
:1003A00003F500631A467B681A6100237B611CE039
:1003B0007B695A013B69134403F510631A46796857
:1003C0007B6904339B000B449A607B695A013B694B
:1003D000134403F530631A4679687B6914339B0034
:1003E0000B445A607B6901337B617B685B781A46FA
:1003F0007B699A42DCD83B6903F580631A467B68C7
:100400005A613B6903F588631A467B68C3F8CC20C0
:1004100000237B610FE07B695A013B69134403F5BC
:10042000A0631A4679687B6922339B000B449A606B
:100430007B6901337B617B681B781A467B699A4232
:10044000E9D800237B610FE07B691A033B69134401
:1004500003F580531A4679687B6932339B000B445D
:100460009A607B6901337B617B681B781A467B69E4
:100470009A42E9D83B6903F560631A467B68C3F882
:100480000C21FB7B18461C37BD465DF8047B70478A
:100490000000044080B588B000AF78600023FB778F
:1004A0000023BB6100237B610023FB607B681B7A18
:1004B000012B4FD17B68DB689B6B7B61BB7D6FF34E
:1004C0000003BB757B685B7A002B03D0BB7D43F0D8
:1004D0001003BB757B68DB687A699A630023BB6194
:1004E0007B68DB68DB68BB613B7E6FF386133B7622
:1004F000BB7E6FF38613BB763B7E43F010033B76E7
:100500003B7E6FF3C3033B763B7E6FF3C7133B76B3
:10051000BB7E6FF34103BB76BB7E6FF3C303BB7639
:100520007B68DB68BA69DA607868FFF74FFE7B6842
:10053000DB78012B40F082803B7B052262F3440391
:100540003B733B7B43F020033B737B68DB68FA68BB
:100550009A6073E07B68DB68DB68BB613B7E43F0DD
:1005600040033B767B68DB68BA69DA607868FFF73E
:100570002DFE00237B61BB7D43F00103BB757B68CF
:100580001B7A032B03D1BB7D43F00203BB75BB7DFC
:1005900043F00403BB75BB7D43F00803BB75BB7D13
:1005A00043F02003BB757B685B7A002B03D0BB7DD7
:1005B00043F01003BB757B68DB687A699A6314208B
:1005C00004F0D6FE7B68DB68DB68BB617B681B7A66
:1005D000032B03D1BB7E43F00103BB767B68DB6852
:1005E000BA69DA607B681B7A032B27D17B68DB68EA
:1005F0001B6B3B61FB7C012262F38303FB74BB7CBE
:100600006FF3C713BB74FB7C43F01003FB74BB7C1C
:100610002D2262F30603BB747B68DB683A691A63B8
:10062000C82004F0A5FEBB7C43F08003BB747B684C
:10063000DB683A691A63C82004F09AFE7B68DB78AD
:10064000012B10D17B68DB689B68FB603B7B05223C
:1006500062F344033B733B7B43F020033B737B68B3
:10066000DB68FA689A60FB7F18462037BD4680BD7C
:1006700080B485B000AF78600023FB730023BB60BB
:100680003B7A43F001033B727B68DB687A68D2688F
:100690009168BA680A439A60FB7B18461437BD46D6
:1006A0005DF8047B704700BF80B485B000AF786010
:1006B0000023FB730023BB603B7A43F001033B72D2
:1006C0007B68DB687A68D2689168BA68D2430A406E
:1006D0009A60FB7B18461437BD465DF8047B704773
:1006E00080B586B000AF786039600023FB740023CA
:1006F0007B610023FB60FB6843F02003FB603B68E9
:10070000DBB203F01F03DAB2FB6862F38A13FB600B
:100710007B68DB68FA681A617B68DB681B69FB60D1
:100720007B6901337B617A69094B9A4200D906E003
:10073000FB685B0903F00103DBB2012BECD0032063
:1007400004F0F2FDFB7C18461837BD4680BD00BFA3
:10075000400D030080B586B000AF78600023FB74C5
:1007600000237B610023FB60FB6843F01003FB6008
:100770007B68DB68FA681A617B68DB681B69FB6071
:100780007B6901337B617A69094B9A4200D906E0A3
:10079000FB681B0903F00103DBB2012BECD0032043
:1007A00004F0C2FDFB7C18461837BD4680BD00BF73
:1007B000400D030080B584B000AF78600B46FB703D
:1007C0000023FB737B68DB68DB68BB60FB7A6FF33D
:1007D0004513FB72FB7A6FF38613FB72FB78012BD8
:1007E00004D1FB7A43F02003FB7206E0FB78002B78
:1007F00003D1FB7A43F04003FB727B68DB68BA6885
:10080000DA60322004F0B4FDFB7B18461037BD4699
:1008100080BD00BF80B483B000AF78607B68DB68C8
:100820005B6903F0010318460C37BD465DF8047B95
:10083000704700BF80B582B000AF78607868FFF77E
:10084000E9FF0346012B0CBF00230123DBB218464E
:100850000837BD4680BD00BF80B485B000AF78606A
:100860000023FB607B68DB685B69FB607B68DB689F
:100870009B69FA681340FB60FB6818461437BD4655
:100880005DF8047B704700BF80B485B000AF78602E
:100890000B46FB707B681B691B68FB60FB7803F0F1
:1008A0000303DAB23B7B62F301033B737B681B6992
:1008B000FA681A601437BD465DF8047B704700BFC4
:1008C00080B58CB000AF7860002387F82B30002310
:1008D0007B6200233B620023FB610023BB6100239A
:1008E0007B617B68D3F80C3100221A607B681B693E
:1008F0001B683B6297F821306FF3C40387F82130FF
:100900007B681B693A6A1A607B68DB7A012B40D1ED
:1009100078680321FFF7B8FF7B68DB6880225A62A2
:10092000FB8B402262F30F03FB83BB8B802262F3BD
:100930000F03BB837B68DB68FA699A62BA8BFB8B17
:1009400013449BB23B837B8B802262F30F037B8338
:100950007B68DB68BA69C3F804213A8B7B8B13444C
:100960009BB23B837B8B6FF30F037B837B68DB68DE
:10097000BA69C3F808213A8B7B8B13449BB23B8343
:100980007B8B6FF30F037B837B68DB68BA69C3F8EB
:100990000C2178681021FFF7A3FE7868FFF7DAFED4
:1009A0007B681B6900221A617B681B6900225A61FF
:1009B0007B681B694FF0FF329A617B681B690022DC
:1009C000DA610023FB623AE07A68FB6A04339B0039
:1009D00013449B681B687B6297F82730C3F3C013EE
:1009E000DBB2002B0ED000237B6297F8273043F058
:1009F000400387F8273097F8273043F0080387F83B
:100A0000273001E000237B627A68FB6A04339B0095
:100A100013449B687A6A1A607A68FB6A04339B0005
:100A200013449B6800221A617A68FB6A04339B00B6
:100A300013449B68FF229A60FB6A0133FB627B6868
:100A40005B781A46FB6A9A42BED80023FB6235E007
:100A50007A68FB6A14339B0013445B681B68FB6075
:100A6000FB7BC3F3C013DBB2002B0AD00023FB6077
:100A7000FB7B43F04003FB73FB7B43F00803FB73FA
:100A800001E00023FB607A68FB6A14339B00134487
:100A90005B68FA681A607A68FB6A14339B00134437
:100AA0005B6800221A617A68FB6A14339B00134466
:100AB0005B68FF229A60FB6A0133FB627B685B78AC
:100AC0001A46FB6A9A42C3D800237B617B7D43F0C0
:100AD00001037B757B681B697A68126911697A6901
:100AE000D24311407A690A431A617B68DB78012B93
:100AF0001BD100233B613B7C43F001033B743B7CF7
:100B000043F002033B743B8A402262F38A033B8238
:100B1000BB7C43F00103BB747B8A402262F3490330
:100B20007B827B681B693A691A63786800F006F873
:100B300097F82B3018463037BD4680BD80B584B05D
:100B400000AF78600023FB730023BB607B68DB6829
:100B500000229A617B68DB684FF0FF325A61786847
:100B6000FFF712FB7B68DB78002B03D13B7A43F065
:100B700010033B727B7A43F008037B727B7A43F06D
:100B800010037B727B7A43F020037B72BB7A43F0C5
:100B90000403BB72BB7A43F00803BB723B7A43F099
:100BA00008033B72BB7A43F01003BB72BB7A43F07D
:100BB0002003BB727B68DB687A68D2689169BA6887
:100BC000D2431140BA680A439A61FB7B184610373A
:100BD000BD4680BD80B485B000AF78600023FB7354
:100BE0007B681B699B68BB603B7AC3F34103DBB244
:100BF000022B09D0032B04D0012B02D00323FB735B
:100C000005E00223FB7302E00123FB7300BFFB7BC3
:100C100018461437BD465DF8047B704780B487B032
:100C200000AF78600023FB750023BB607B681B6905
:100C30009B683B617B689B691B68FB603B7CC3F3E3
:100C40004103DBB2022B04D0BB896FF30A03BB81E3
:100C500005E0BB89032262F30A03BB8100BF7B6806
:100C60009B69FA681A607B7A43F001037B727B68A8
:100C70001B697A6812695168BA68D2431140BA6830
:100C80000A435A60FB7D18461C37BD465DF8047B5D
:100C9000704700BF80B487B000AF78603960002330
:100CA000FB740023FB600023BB603B685B78012B77
:100CB0000FD13B681B787A6804339B0013449B6810
:100CC0007B613B681B78012202FA03F39BB23B81F4
:100CD0000EE03B681B787A6814339B0013445B6812
:100CE0007B613B681B78012202FA03F39BB27B8194
:100CF0007B691B68FB607B7BC3F3C013DBB2002BFB
:100D000027D13B689B689BB2C3F30A039AB2BB89A5
:100D100062F30A03BB813B68DB7803F00303DAB2BA
:100D2000BB7B62F38303BB733B68DB88DBB203F0FE
:100D30000F03DAB2FB8962F38913FB81FB7B43F07B
:100D40001003FB737B7B43F080037B73FA687B6942
:100D50001A607B681B697A681269D169BA680A43AC
:100D6000DA61FB7C18461C37BD465DF8047B704792
:100D700080B487B000AF786039600023FB74002333
:100D8000FB600023BB603B685B78012B0FD13B68A5
:100D90001B787A6804339B0013449B687B613B6833
:100DA0001B78012202FA03F39BB23B810EE03B6801
:100DB0001B787A6814339B0013445B687B613B6843
:100DC0001B78012202FA03F39BB27B817B7B6FF3DA
:100DD000C7137B73FA687B691A607B681B697A6842
:100DE0001269D169BA68D2430A40DA61FB7C1846BD
:100DF0001C37BD465DF8047B704700BF80B588B0E6
:100E000000AF786039600023FB770023BB610023CB
:100E10007B6100233B613B685B78012B40F0AB803A
:100E20003B681B787A6804339B0013449B681B68FB
:100E30007B613B681B787A6804339B0013449B6892
:100E40001B693B613B685B69002B09D13B696FF310
:100E500012033B617B8A012262F3CC037B8222E096
:100E60003B685B69C3F312023B6962F312033B61A7
:100E70003B685A693B689B6813445A1E3B689B68F1
:100E8000B2FBF3F39BB2C3F309039AB27B8A62F31A
:100E9000CC037B823B68DB78012B04D1FB7C0122F5
:100EA00062F34613FB743B681B787A6804339B003B
:100EB00013449B683A691A617B68DB78012B0AD17D
:100EC0003B681B787A6804339B0013449B683A683C
:100ED00012695A6115E03B68DB78012B11D03B6841
:100EE0005B69002B0DD03B681B78012202FA03F3EB
:100EF000BB617B681B697A681269516BBA690A43E6
:100F00005A633B68DB78012B14D17B681B699B68B3
:100F1000FB60FB68C3F30D239BB203F00103002BBE
:100F200004D1FB7D43F02003FB7503E0FB7D43F020
:100F30001003FB75FB7D43F00403FB75FB7D43F061
:100F40008003FB753B681B787A6804339B0013446D
:100F50009B687A691A603B68DB78012B40F08880D7
:100F60003B68D9683B681A783B685B699BB27868D4
:100F7000FFF772F97CE03B681B787A6814339B00BA
:100F800013445B681B687B613B681B787A68143389
:100F90009B0013445B681B693B613B685B69002BEA
:100FA0000DD13B689B68C3F312023B6962F31203E5
:100FB0003B617B8A012262F3CC037B821FE03B68AA
:100FC0005A693B689B6813445A1E3B689B68B2FB96
:100FD000F3F39BB2C3F309039AB27B8A62F3CC03A7
:100FE0007B827B8AC3F3C9039BB23A68926802FB97
:100FF00003F3C3F312023B6962F312033B613B68E4
:101000001B787A6814339B0013445B683A691A6151
:101010007B68DB78012B09D13B681B787A68143335
:101020009B0013445B683A6812695A613B68DB783D
:10103000012B0CD13B685B79002B04D0FB7D43F086
:101040002003FB7503E0FB7D43F01003FB75FB7D84
:1010500043F00403FB75FB7D43F08003FB753B68A5
:101060001B787A6814339B0013445B687A691A60B2
:10107000FB7F18462037BD4680BD00BF80B489B0D5
:1010800000AF786039600023FB770023BB61002349
:101090003B610023BB603B685B78012B6FD17B68B1
:1010A0009B697B617B691B683B617B691B69BB60DA
:1010B0003B685B69002B09D13B7A6FF306033B72F7
:1010C000BB7A012262F3C403BB7223E03B685A6916
:1010D0003B689B689A420ED93B689A683B685A61A4
:1010E0003B689B68DBB203F07F03DAB23B7A62F3C2
:1010F00006033B7209E03B685B69DBB203F07F03E8
:10110000DAB23B7A62F306033B72BB7A012262F3E6
:10111000C403BB72BA687B691A617B68DB78012BF8
:1011200009D13B681B787A6804339B0013449B68A1
:101130003A6812695A61FB7C43F00403FB74FB7C40
:1011400043F08003FB743A697B691A607B68DB7843
:10115000002B75D13B685B69002B71D03B681B7815
:10116000012202FA03F3BA691343BB617B681B696E
:101170007A681269516BBA690A435A6360E03B6846
:101180001B787A6814339B0013445B681B683B61CF
:101190003B681B787A6814339B0013445B681B69B7
:1011A000BB603B685B69002B0FD13B689B68DBB27F
:1011B00003F07F03DAB23B7A62F306033B72BB7A39
:1011C000012262F3C403BB7212E03B689A683B6879
:1011D0005A613B689B68DBB203F07F03DAB23B7A6B
:1011E00062F306033B72BB7A012262F3C403BB7253
:1011F0003B681B787A6814339B0013445B68BA68B9
:101200001A617B68DB78012B09D13B681B787A680F
:1012100014339B0013445B683A6812695A61FB7C83
:1012200043F00403FB74FB7C43F08003FB743B68D6
:101230001B787A6814339B0013445B683A691A6020
:10124000FB7F18462437BD465DF8047B704700BF1E
:1012500080B487B000AF786039600023FB7500234D
:10126000FB603B685B78012B1CD13B681B787A687C
:1012700004339B0013449B683B613B691B68FB6024
:10128000FB7BC3F3C013DBB2002B03D0FB7B43F02B
:101290004003FB73BB7B43F02003BB73FA683B69DD
:1012A0001A6011E03B681B787A6814339B00134482
:1012B0005B683B613B691B68FB60BB7B43F02003C1
:1012C000BB73FA683B691A60FB7D18461C37BD4644
:1012D0005DF8047B704700BF80B487B000AF7860D2
:1012E00039600023FB740023FB603B685B78012BB3
:1012F00008D13B681B787A6804339B0013449B68D1
:101300007B6107E03B681B787A6814339B001344C9
:101310005B687B617B691B68FB60BB7B6FF345137C
:10132000BB733B68DB78032B03D03B68DB78022B75
:1013300003D1FB7B43F01003FB73FA687B691A60EF
:10134000FB7C18461C37BD465DF8047B704700BF28
:1013500080B485B000AF78607B681B699B69FB60D7
:101360007B681B69DB69FA681340FB60FB681B0C38
:1013700018461437BD465DF8047B704780B485B0CD
:1013800000AF78600B46FB70FB787A6814339B00E3
:1013900013445B689B68FB607B681B695B69FA6848
:1013A0001340FB60FB6818461437BD465DF8047BAC
:1013B000704700BF80B485B000AF78607B681B6960
:1013C0009B69FB607B681B69DB69FA681340FB6003
:1013D000FB689BB218461437BD465DF8047B704726
:1013E00080B487B000AF786000233B61FB7C43F0A2
:1013F000C003FB74BB7C012262F3C403BB743B7C5F
:10140000182262F306033B747B685B6D3A691A61CC
:101410007B68DB78012B16D10023FB607B685B6D5A
:101420007A6802F5B9625A617B685B6D1B68FB6084
:10143000FB7B43F08003FB734FF08023FB607B68F2
:101440005B6DFA681A601C37BD465DF8047B704717
:1014500080B485B000AF78607B689B7A002B1BD08E
:101460007B681B699B68FB603B7BC3F30003DBB2BB
:10147000012B11D17B6803F586731B68BB603B7A37
:101480006FF341033B723B7A6FF300033B727B685F
:10149000D3F80C31BA681A601437BD465DF8047B86
:1014A000704700BF80B400AFBD465DF8047B704755
:1014B00080B483B000AF0346FB71FB79002B02D0F0
:1014C000012B02D002E000BF00E000BF0C37BD4698
:1014D0005DF8047B704700BF80B400AFBD465DF887
:1014E000047B704780B400AFBD465DF8047B704755
:1014F00080B400AFBD465DF8047B704780B400AF98
:10150000BD465DF8047B704780B400AFBD465DF812
:10151000047B704780B483B000AF78600B467B805B
:101520007B88C3F308039AB27B689A800C37BD4668
:101530005DF8047B704700BF80B483B000AF786073
:101540007B689B889BB2C3F308039BB218460C3799
:10155000BD465DF8047B704780B485B000AF78600D
:101560000B467B800023FB737B681B889AB27B88C9
:1015700013409BB2002B02D00123FB7301E0002338
:10158000FB73FB7B18461437BD465DF8047B704740
:1015900080B582B000AF104B7B60104B3B6007E022
:1015A0003B681A1D3A607A68111D796012681A60EA
:1015B0003A680B4B9A42F3D30A480B494FF00002AA
:1015C0008842B8BF40F8042BFFF6FAAF00F028FBC2
:1015D0000837BD4680BD00BFBCDF0008000000200A
:1015E00094050020980500201817002080B400AF53
:1015F000FEE700BF80B584B000AFF8607A603B6062
:101600000B46FB72F86803F01FFEF86800F01CF848
:10161000FB683A68C3F8E025FB68BA69C3F8E425BB
:10162000FB687A68C3F8E825FB7AF868194606F083
:10163000B1FAFB68D3F8E4351B689847F86803F003
:101640005BFE1037BD4680BD80B483B000AF7860CC
:10165000002318460C37BD465DF8047B704700BF79
:1016600080B584B000AF786007F108037868194648
:1016700004F064FA3B7A03F01F03012B0AD0022B1B
:101680000FD0002B14D107F108037868194603F036
:101690007FFE16E007F108037868194603F0C8FEDC
:1016A0000FE007F108037868194603F0F5FE08E03B
:1016B0003B7A23F07F03DBB27868194606F0ECFB37
:1016C00000BF002318461037BD4680BD80B584B0EA
:1016D00000AF78600B46FB70FB78002B45D17B6830
:1016E00003F55C73FB607B6893F81131032B4FD1DA
:1016F000FB68DA69FB689B689A4221D9FB68DA6962
:10170000FB689B68D21AFB68DA617B68DB78012B87
:1017100006D1FB68DA68FB689B681A44FB68DA60EC
:10172000FB68DA68FB689968FB68DB69994238BF37
:101730000B469BB2786811461A4606F093FC27E0E8
:101740007B68D3F8E0351B69002B0AD07B6893F8DF
:101750001231032B05D17B68D3F8E0351B6978681B
:101760009847786806F092FC12E07B68D3F8E03581
:101770009B69002B0CD07B6893F81231032B07D1A7
:101780007B68D3F8E0359B69FA787868114698470A
:10179000002318461037BD4680BD00BF80B584B019
:1017A00000AF78600B46FB70FB78002B60D17B6844
:1017B00003F58C73FB607B6893F81131022B6AD1BF
:1017C000FB68DA69FB689B689A421CD9FB68DA6996
:1017D000FB689B68D21AFB68DA617B68DB78012BB7
:1017E00006D1FB68DA68FB689B681A44FB68DA601C
:1017F000FB68DA68FB68DB699BB2786811461A46B9
:1018000006F0FCFB47E0FB681B6AFA689268B3FBD2
:10181000F2F102FB01F29B1A002B14D1FB681A6A49
:10182000FB689B689A420ED3FB681A6AFB685B6A86
:101830009A4208D278680021002206F0DFFBFB689C
:1018400000225A6227E07B68D3F8E035DB68002B82
:101850000AD07B6893F81231032B05D17B68D3F84B
:10186000E035DB6878689847786806F027FC12E076
:101870007B68D3F8E0355B69002B0CD07B6893F86C
:101880001231032B07D17B68D3F8E0355B69FA7816
:10189000786811469847002318461037BD4680BD2A
:1018A00080B582B000AF78607868002140220023C4
:1018B00006F0F0F9786880214022002306F0EAF96A
:1018C0007B68012283F812217B68D3F8E4355B68DA
:1018D0007A68927810469847002318460837BD4624
:1018E00080BD00BF80B582B000AF78607B68D3F860
:1018F000E4351B6998477B68032283F81221002393
:1019000018460837BD4680BD80B582B000AF78600C
:101910007B68042283F812217B68D3F8E435DB6806
:101920009847002318460837BD4680BD80B582B071
:1019300000AF78607B68D3F8E035DB69002B05D019
:101940007B68D3F8E035DB69786898470023184650
:101950000837BD4680BD00BF80B582B000AF78605B
:101960000B46FB707B68D3F8E0351B68FA78786823
:10197000114698477B68D3F8E4359B689847002365
:1019800018460837BD4680BD80B582B000AF78608C
:101990000B46FB707B68D3F8E0355B68FA787868B3
:1019A00011469847002318460837BD4680BD00BF42
:1019B00080B582B000AF78607B68D3F8E0351B6AF1
:1019C00078689847002318460837BD4680BD00BF99
:1019D00080B582B000AF78607B68D3F8E0355B6A91
:1019E00078689847002318460837BD4680BD00BF79
:1019F00080B500AF014803F0B5F980BD6F12833A9E
:101A000080B582B000AF0346FB7100BF074880215C
:101A1000FFF7A2FD0346002BF8D0FB799BB20348E9
:101A20001946FFF777FD0837BD4680BD00440040EA
:101A300080B582B000AF0023FB710948FFF77CFD41
:101A40000346FB71FB790748194602F0D9FD0648A9
:101A50004FF4805103F016F80837BD4680BD00BF33
:101A600000440040011A0008000C024080B500AF9D
:101A70000D48012107F0D8FF0B4B1B889BB21B09B7
:101A80009BB2002B05D0094B1B685A1E074B1A60EE
:101A900004E0064B1B685A1C044B1A6002480121E3
:101AA00007F0C2FF80BD00BF000400409805002081
:101AB00080B500AF0B4B1B889BB21B099BB2002B60
:101AC00005D0094B1B685A1E074B1A6004E0064BF1
:101AD0001B685A1C044B1A600248012107F0A4FF3E
:101AE00080BD00BF00080040A405002080B500AF05
:101AF0000B4B1B889BB21B099BB2002B05D0094BDB
:101B00001B685A1E074B1A6004E0064B1B685A1CE0
:101B1000044B1A600248012107F086FF80BD00BF18
:101B2000000C00409C05002080B500AF0B4B1B88CB
:101B30009BB21B099BB2002B05D0094B1B685A1E98
:101B4000074B1A6004E0064B1B685A1C044B1A60D2
:101B50000248012107F068FF80BD00BF000401407A
:101B6000A005002080B500AF03F0DAF90020244979
:101B70004FF4704205F074FD224805F053FD2048F3
:101B80004FF4804102F07EFF642003F07DF902F003
:101B90006DFE1D4805F09AFD00F05EFA1B4800211D
:101BA00007F062FC1848002107F05EFC184800218D
:101BB00007F05AFC174B00221A60174B00221A60DC
:101BC000012008F09BFA002008F004FB00F0A4FBC1
:101BD000124800F019FE0A484FF4804102F060FFFD
:101BE00007484FF4005102F04DFF4FF4967003F098
:101BF0004BF903484FF4005102F052FF80BD00BF83
:101C0000000C02406F12833A0004004000000140C3
:101C10000008004098050020A40500200022014093
:101C20002DE9B04FBCB012AF07F1580300221A6083
:101C3000043300221A60043300221A6004330022A5
:101C40001A60043300221A60043300221A6004333D
:101C500000221A60043300221A60043300221A6042
:101C6000043300221A60043300221A600433002275
:101C70001A60043307F1280300221A60043300229B
:101C80001A60043300221A60043300221A600433FD
:101C900000221A60043300221A60043300221A6002
:101CA000043300221A60043300221A600433002235
:101CB0001A60043300221A60043300221A600433CD
:101CC00007F1080300221A60043300221A6004336B
:101CD00000221A60043300221A60043300221A60C2
:101CE000043300221A60043300221A6004330022F5
:101CF0001A6004330023C7F898300023C7F89430E3
:101D000000237B600023C7F8A4300023C7F890307D
:101D10000023C7F8A0300023C7F88C300023C7F891
:101D20009C30FFF71FFFB6484FF4004102F0AAFEB7
:101D3000B3484FF4004102F0B3FEB248002107F06F
:101D400093FBB148002107F08FFBB048002107F05A
:101D50008BFBAF48002107F087FBAE4B00221A60D7
:101D6000AD4B00221A60AD4B00221A60AC4B002232
:101D70001A604FF4967003F087F80123C7F890308B
:101D80008023C7F88C304FF00002A64BC7E912231E
:101D900001237B60A44803F0ADF80346002B00F05C
:101DA0005881984807F06EFB02469A4B1B681B044B
:101DB0001344C7F89830D7F898305B42C7F898308A
:101DC000914807F05FFB0246934B1B681B041344CA
:101DD000C7F89430954B00225A70944B00229A70A9
:101DE000924B0022DA7008F0D9F907F1580318462F
:101DF000D7F89810D7F8942006F002FD07F12803D1
:101E000008936C4607F168050FCD0FC495E80F00E5
:101E100084E80F0007F158030FCB07F09DF807F196
:101E20000803184607F044F93B6D002B3CD107F13D
:101E300028030893D7F890300993D7F88C300A9389
:101E40006C4607F168050FCD0FC495E80F0084E8D4
:101E50000F0007F158030FCB02F05AFAC7F8A4009D
:101E6000D7E90A01D7E90C2307F108040894CDE962
:101E70000A01CDE90C2360A3D3E90023CDE90E23A9
:101E8000D7F8A03010936C4607F168050FCD0FC44A
:101E900095E80F0084E80F0007F158030FCB06F018
:101EA0004FFE01237B6019E007F1080308934FF010
:101EB00000025F4BCDE90A2302230C933B1D0D93D7
:101EC0006C4607F168050FCD0FC495E80F0084E854
:101ED0000F0007F158030FCB06F0AEFAD7F8903099
:101EE000062B07D1D7F8A430002B03D00123C7F865
:101EF000A03026E0D7F89030022B07D1D7F8A430D5
:101F0000002B03D00123C7F8A0301AE0D7F8903097
:101F1000002B07D1D7F8A430002B03D00123C7F83A
:101F2000A0300EE0D7F89030032B07D1D7F8A430BB
:101F3000002B03D00123C7F8A03002E00023C7F82C
:101F4000A0303B6D002B27D1D7F8A030012B0DD14D
:101F5000D7E90423904683F00049C7E90489D7E90B
:101F60000823924683F0004BC7E908AB07F108034A
:101F7000089364230993D7F8A0300A936C4607F1BD
:101F800068050FCD0FC495E80F0084E80F0007F136
:101F900058030FCB07F0B4F8D7E90401D7E90223BF
:101FA0000AF0A6FE02460B4614461D46D7E9080174
:101FB000D7E906230AF09CFE02460B462046294636
:101FC00000F0C6F8D7F89C305A1CC7F89C20002BAC
:101FD00002D0012B07D035E016481749D7F89820D2
:101FE00002F0D6FB35E0154B5B88124814491A46BF
:101FF00002F0CEFB2DE000BF333333333333D33F16
:10200000000C02400004004000080040000C0040AA
:102010000004014098050020A40500209C05002034
:10202000A0050020004065400AD7A33BC807002058
:10203000008046C055480008ACDC0008CC070020F2
:10204000B4DC00080023C7F89C30024802F092FB81
:1020500000BF9FE65548000880B500AF0A4805213B
:1020600005F096FB00200949802205F0F9FA0020CE
:102070000749202205F0F4FA002006494FF4A04257
:1020800005F0EEFA80BD00BF0000014000000240F4
:10209000000802400010024080B582B000AF7860B6
:1020A00039607B6803F00103002B03D024488021B2
:1020B00002F0E8FC7B6803F00203002B03D0214808
:1020C000202102F0DFFC7B6803F00403002B04D026
:1020D0001D484FF4805102F0D5FC7B6803F00803E3
:1020E000002B04D018484FF4804102F0CBFC3B6831
:1020F00003F00103002B03D01148802102F0D0FC33
:102100003B6803F00203002B03D00E48202102F0AD
:10211000C7FC3B6803F00403002B04D00A484FF4CB
:10212000805102F0BDFC3B6803F00803002B04D093
:1021300006484FF4804102F0B3FC0837BD4680BD2D
:10214000000002400008024000100240000402406B
:102150002DE9B04F8CB002AFC7E90401C7E90223F3
:102160004FF00002664BC7E908230023FB61002300
:10217000BB61D7E90401D7E908230BF0F1F9034665
:10218000002B04D001200221FFF786FF17E03B6AF5
:102190003B607B6A83F000437B60D7E90001D7E9AD
:1021A00004230BF0DDF90346002B04D002200121AB
:1021B000FFF772FF03E000200321FFF76DFFD7E96F
:1021C0000201D7E908230BF0CBF90346002B04D01A
:1021D00004200821FFF760FF16E0D7F820A07B6AF3
:1021E00083F0004B50465946D7E902230BF0B8F96B
:1021F0000346002B04D008200421FFF74DFF03E025
:1022000000200C21FFF748FFD7F810807B6923F0EE
:102210000049404649464FF000023A4B0AF01AFF87
:1022200002460B46104619464FF00002364B0AF0A4
:102230005FFD02460B46104619460BF0A5F9034612
:10224000BB61BC68FB6823F00045204629464FF07F
:1022500000022C4B0AF0FEFE02460B4610461946C1
:102260004FF00002284B0AF043FD02460B46104691
:1022700019460BF089F90346FB61B8690AF084FE40
:1022800002460B464FF000002049CDE90001104600
:10229000194619A3D3E9002307F0B2FE02460B4604
:1022A000104619460BF098F90346194804211A46BE
:1022B00005F002FBF8690AF067FE02460B464FF094
:1022C00000001249CDE90001104619460AA3D3E9DE
:1022D000002307F095FE02460B46104619460BF008
:1022E0007BF903460A4801211A4605F0E5FA28372A
:1022F000BD46BDE8B08F00BF0000000000388F4031
:1023000000000840000024400000E03F0000F03FD3
:1023100000000140AFF3008080B59AB000AF4FF4E9
:102320008000012100F07EF84FF48060012100F070
:10233000D3F837480621302204F0AAFE4FF080631C
:102340007B60344BBB60344BFB6000233B6102235A
:102350007B610023BB614FF48063FB614FF400633A
:102360003B624FF400537B624FF48073BB624FF4C7
:102370000033FB6200233B6301237B630023BB63C9
:102380000023FB633B1D2548194602F0EBFE234862
:10239000012102F03DFF00233B6400237B64002306
:1023A000BB640023FB6407F14003184600F024F9E6
:1023B00000233B65012387F85430012387F855300B
:1023C0000023BB6500233B66022387F8643007F1D6
:1023D00050031348194600F0BBF811480B210122A5
:1023E000002300F04DF90E480C210222002300F0DA
:1023F00047F90B48012100F033FA0948012100F0A8
:1024000013FA0748012100F01FF96837BD4680BD67
:10241000000802404C220140CC070020106402401A
:102420000022014080B483B000AF78600B46FB709F
:10243000FB78002B06D0094B084A116B7A680A43D7
:102440001A6306E0054B054A116B7A68D2430A40CD
:102450001A630C37BD465DF8047B704700380240B4
:1024600080B483B000AF78600B46FB70FB78002B24
:1024700006D0094B084A516B7A680A435A6306E052
:10248000054B054A516B7A68D2430A405A630C37B0
:10249000BD465DF8047B70470038024080B483B0CD
:1024A00000AF78600B46FB70FB78002B06D0094B21
:1024B000084A116C7A680A431A6406E0054B054A1B
:1024C000116C7A68D2430A401A640C37BD465DF835
:1024D000047B70470038024080B483B000AF78605E
:1024E0000B46FB70FB78002B06D0094B084A516C59
:1024F0007A680A435A6406E0054B054A516C7A68CB
:10250000D2430A405A640C37BD465DF8047B7047DD
:102510000038024080B483B000AF78600B46FB7097
:10252000FB78002B06D0094B084A116A7A680A43E7
:102530001A6206E0054B054A116A7A68D2430A40DE
:102540001A620C37BD465DF8047B704700380240C4
:1025500080B485B000AF786039600023FB60002351
:10256000FB727B685B68FB60FB6823F0407323F4BD
:102570008073FB603B681B791A023B681B6813433E
:10258000FA681343FB607B68FA685A607B689B6853
:10259000FB60FA68174B1340FB603B681A693B68A5
:1025A000DB681A433B689B681A433B685B795B00B6
:1025B0001343FA681343FB607B68FA689A607B6890
:1025C000DB6AFB60FB6823F47003FB603B681B7DE8
:1025D000013BDAB2FB7A1343FB72FB7A1B05FA6804
:1025E0001343FB607B68FA68DA621437BD465DF816
:1025F000047B7047FDF7FFC080B485B000AF786002
:102600000023FB600E4B5B68FB60FA680D4B1340C8
:10261000FB607B681A687B685B681A437B689B6811
:102620001A437B68DB681343FA681343FB60044B6F
:10263000FA685A601437BD465DF8047B704700BFE6
:1026400000230140E030FCFF80B483B000AF78602D
:102650000B46FB70FB78002B06D07B689B6843F031
:1026600001027B689A6005E07B689B6823F00102A9
:102670007B689A600C37BD465DF8047B704700BFED
:1026800080B485B000AF7860F970BA707B700023B9
:10269000FB600023BB60FB78092B23D97B68DB68D8
:1026A000FB60FB78A3F10A0213465B001344072288
:1026B00002FA03F3BB60BB68DB43FA681340FB60BC
:1026C0007978FB78A3F10A0213465B00134401FA00
:1026D00003F3BB60FA68BB681343FB607B68FA686E
:1026E000DA601EE07B681B69FB60FA7813465B00CA
:1026F0001344072202FA03F3BB60BB68DB43FA68AA
:102700001340FB607978FA7813465B00134401FAB2
:1027100003F3BB60FA68BB681343FB607B68FA682D
:102720001A61BB78062B21D87B685B6BFB60BB789A
:102730005A1E13469B0013441F2202FA03F3BB6088
:10274000BB68DB43FA681340FB60F978BB785A1E1C
:1027500013469B00134401FA03F3BB60FA68BB689D
:102760001343FB607B68FA685A6347E0BB780C2B25
:1027700021D87B681B6BFB60BB78DA1F13469B007C
:1027800013441F2202FA03F3BB60BB68DB43FA6801
:102790001340FB60F978BB78DA1F13469B001344A3
:1027A00001FA03F3BB60FA68BB681343FB607B6804
:1027B000FA681A6322E07B68DB6AFB60BB78A3F1EE
:1027C0000D0213469B0013441F2202FA03F3BB6061
:1027D000BB68DB43FA681340FB60F978BB78A3F170
:1027E0000D0213469B00134401FA03F3BB60FA6821
:1027F000BB681343FB607B68FA68DA621437BD4636
:102800005DF8047B704700BF80B483B000AF786090
:102810007B689B6843F080427B689A600C37BD46BA
:102820005DF8047B704700BF80B483B000AF786070
:102830000B46FB70FB78002B06D07B689B6843F44B
:1028400080727B689A6005E07B689B6823F48072E5
:102850007B689A600C37BD465DF8047B704700BF0B
:1028600080B483B000AF78600B46FB70FB78002B20
:1028700006D07B689B6843F400727B689A6005E031
:102880007B689B6823F400727B689A600C37BD46B6
:102890005DF8047B704700BF80B58AB000AF034687
:1028A000FB71002387F82730594B1B78002B0AD087
:1028B000584B1B78FA799A4202D1012387F82730C6
:1028C00097F82730A0E04FF480500121FFF704FE75
:1028D000514B9B6818460121FFF7A4FD4E4B9B69A5
:1028E00018460121FFF79EFD4B4B9B6A18460121BC
:1028F000FFF798FD484B1A68474B1B7B104619465B
:10290000052202F0DBF8444B1A69434B1B7F10464B
:102910001946052202F0D2F83F4B1A6A3E4B93F853
:102920002C3010461946052202F0C8F8022387F819
:102930002030022387F82130002387F82230022339
:1029400087F82330344B9B88FB61334B1A6807F1BF
:102950001C031046194601F0EDFF2F4B9B8AFB61CB
:102960002D4B1A6907F11C031046194601F0E2FFCE
:10297000294B9B8CFB61284B1A6A07F11C031046FC
:10298000194601F0D7FF00233B814FF482737B810E
:102990000023BB81FB79002B04D10023FB810023A2
:1029A0003B8213E0FB79012B04D10023FB8101233F
:1029B0003B820BE0FB79022B04D10223FB81002335
:1029C0003B8203E00223FB8101233B824FF400732F
:1029D0007B822823BB820023FB8207233B8307F1F2
:1029E00008030E48194604F0BBFF0C48012104F00F
:1029F000FBFF074B01221A70064BFA791A7001236C
:102A000087F8273097F8273018462837BD4680BD0D
:102A1000A8050020A90500204C000020003001403E
:102A200080B584B000AF0346FB710023FB7300BF89
:102A30000F48022105F014F80346002BF8D0FB796B
:102A40009BB20B48194604F0FDFF00BF0848012166
:102A500005F006F80346002BF8D0054804F0E4FF23
:102A60000346FB73FB7B18461037BD4680BD00BF95
:102A7000003001400000000084B080B586B006AF91
:102A800007F1080C8CE80F00FB6B402B40F0F68040
:102A90003B6C1B68042B00F2088201A252F823F061
:102AA000B52A0008012B0008752B0008E72B000849
:102AB0004F2C0008D7E90223104619464FF00002B8
:102AC0009D4B0AF04DFD0346002B00D1D5E0B96BBC
:102AD0004FF00002984BC1E90023B96B4FF00002A0
:102AE0004FF00003C1E90223B96B4FF00002934B92
:102AF000C1E906233B6C1B685A1C3B6C1A60BCE0A6
:102B0000BB6BD3E90023104619464FF000028C4BF3
:102B10000AF01CFD0346002B00D1AEE0B96B7EA38A
:102B2000D3E90023C1E90023B96B4FF000024FF055
:102B30000003C1E90223BB6BD3E90001BB6BD3E9FE
:102B40000223CDE90001CDE902230223049374A1FD
:102B5000D1E900014FF000027A4B07F069F9024613
:102B60000B46B96BC1E906233B6C1B685A1C3B6CD6
:102B70001A6082E0BB6BD3E900231046194668A3B4
:102B8000D3E900230AF0E2FC0346002B00D174E0F5
:102B9000B96B63A3D3E90023C1E90023B96B4FF0FC
:102BA0000002684BC1E90223BB6BD3E90001BB6B98
:102BB000D3E90223CDE90001CDE9022302230493E6
:102BC00059A1D1E900014FF000025D4B07F030F947
:102BD00002460B46B96BC1E906233B6C1B685A1CC5
:102BE0003B6C1A6049E0BB6BD3E9002310461946E1
:102BF0004FF00002504B0AF0B3FC0346002B0DD1FE
:102C0000BB6BD3E90223104619464FF000024C4B30
:102C10000AF0A6FC0346002B00D12EE0B96B42A3BC
:102C2000D3E90023C1E90023B96B41A3D3E9002311
:102C3000C1E90223B96B4FF000024FF00003C1E974
:102C400006233B6C1B685A1C3B6C1A6015E0D7E9E5
:102C50000223104619464FF000023B4B0AF080FC5D
:102C60000346002B00D107E0BB6B01229A623B6C4C
:102C70001B685A1C3B6C1A6000BF16E1FB6B802B73
:102C800040F013813B6C1B68042B00F20E810FF2A5
:102C9000080C5CF823F000BFAD2C0008F92C0008EC
:102CA000A52D0008172E00087F2E0008D7E9022363
:102CB000104619464FF000021F4B0AF051FC034624
:102CC000002B00D1F1E0B96B4FF000021A4BC1E9C3
:102CD0000023B96B4FF000024FF00003C1E902235B
:102CE000B96B4FF00002154BC1E906233B6C1B6822
:102CF0005A1C3B6C1A60D8E0BB6BD3E9002310462A
:102D000019464FF000020E4B0AF020FC0346002B40
:102D10001CD1CAE0AFF30080000000000098924090
:102D20000000000000388D40000000000094964034
:102D30000000000000689040004095400080664020
:102D400000E08F400040754000E09A40B96B5AA304
:102D5000D3E90023C1E90023B96B4FF000024FF023
:102D60000003C1E90223BB6BD3E90001BB6BD3E9CC
:102D70000223CDE90001CDE902230223049350A1EF
:102D8000D1E900014FF00002514B07F051F8024623
:102D90000B46B96BC1E906233B6C1B685A1C3B6CA4
:102DA0001A6082E0BB6BD3E900231046194644A3A6
:102DB000D3E900230AF0CAFB0346002B00D174E0DC
:102DC000B96B3FA3D3E90023C1E90023B96B4FF0EE
:102DD00000023F4BC1E90223BB6BD3E90001BB6B8F
:102DE000D3E90223CDE90001CDE9022302230493B4
:102DF00035A1D1E900014FF00002364B07F018F879
:102E000002460B46B96BC1E906233B6C1B685A1C92
:102E10003B6C1A6049E0BB6BD3E9002310461946AE
:102E20004FF000022C4B0AF09BFB0346002B0DD108
:102E3000BB6BD3E90223104619464FF00002254B25
:102E40000AF08EFB0346002B00D12EE0B96B1EA3C7
:102E5000D3E90023C1E90023B96B4FF000021D4BF9
:102E6000C1E90223B96B4FF000024FF00003C1E942
:102E700006233B6C1B685A1C3B6C1A6015E0D7E9B3
:102E80000223104619464FF00002144B0AF068FB6B
:102E90000346002B00D108E0BB6B01229A623B6C19
:102EA0001B685A1C3B6C1A6000BFBD46BDE88040E1
:102EB00004B07047AFF3008000000000009892401B
:102EC0000000000000388D40000000000094964093
:102ED0000040754000E08F400040954000E09A407F
:102EE00084B080B500AF07F1080C8CE80F00FB6BD5
:102EF000402B6DD13B6C1B68012B2BD0012B02D3D7
:102F0000022B4ED0D4E0BB6BD3E900231046194608
:102F10004FF000026E4B0AF023FB0346002B00D15A
:102F200055E0B96B4FF00002694BC1E90023B96B62
:102F30004FF000024FF00003C1E90223B96B4FF0DC
:102F40000002644BC1E906233B6C1B685A1C3B6CB6
:102F50001A603CE0BB6BD3E90023104619464FF0E2
:102F600000025D4B0AF0FCFA0346002B00D12EE074
:102F7000B96B4FF00002584BC1E90023B96B50A365
:102F8000D3E90023C1E90223B96B4FF000024FF0EF
:102F90000003C1E906233B6C1B685A1C3B6C1A609A
:102FA00015E0D7E90223104619464FF000024B4BBB
:102FB0000AF0D6FA0346002B00D107E0BB6B0122D2
:102FC0009A623B6C1B685A1C3B6C1A6000BF6FE036
:102FD000FB6B802B6CD13B6C1B68012B2BD0012B26
:102FE00002D3022B4ED063E0BB6BD3E90023104623
:102FF00019464FF00002364B0AF0B2FA0346002B96
:1030000000D155E0B96B4FF00002314BC1E900230C
:10301000B96B4FF000024FF00003C1E90223B96B16
:103020004FF000022B4BC1E906233B6C1B685A1C76
:103030003B6C1A603CE0BB6BD3E900231046194699
:103040004FF00002244B0AF08BFA0346002B00D10C
:103050002EE0B96B4FF000021F4BC1E90023B96BA2
:1030600019A3D3E90023C1E90223B96B4FF0000291
:103070004FF00003C1E906233B6C1B685A1C3B6CF4
:103080001A6015E0D7E90223104619464FF00002F6
:10309000124B0AF065FA0346002B00D108E0BB6B27
:1030A00001229A623B6C1B685A1C3B6C1A6000BF81
:1030B000BD46BDE8804004B0704700BFAFF300805C
:1030C0000000000000688F400000000000189040E1
:1030D00000407540008046400040954000E09A4026
:1030E00084B080B586B006AF07F1080C8CE80F00FD
:1030F000FB6B402B40F0BB803B6C1B68032B00F24A
:10310000808101A252F823F0193100088D310008A6
:10311000F331000841320008BB6BD3E900231046AD
:1031200019464FF00002984B0AF01AFA0346002B9A
:1031300000D19BE0B96B4FF00002934BC1E9002333
:10314000B96B4FF000024FF00003C1E90223BB6BE3
:10315000D3E90001BB6BD3E90223CDE90001CDE93E
:1031600002230223049384A1D1E900014FF000025D
:10317000864B06F05DFE02460B46B96BC1E906239D
:103180003B6C1B685A1C3B6C1A606FE0BB6BD3E94D
:103190000223104619464FF000027C4B0AF0E0F97A
:1031A0000346002B0DD1BB6BD3E900231046194613
:1031B00071A3D3E900230AF0C9F90346002B00D11B
:1031C00054E0B96B6CA3D3E90023C1E90023B96BC8
:1031D0004FF000026D4BC1E90223B96B4FF00002C2
:1031E0006B4BC1E906233B6C1B685A1C3B6C1A6095
:1031F0003CE0BB6BD3E90223104619464FF00002B6
:10320000644B0AF0ADF90346002B00D12EE0B96BF8
:103210004FF00002604BC1E90023B96B4FF0000290
:103220005E4BC1E90223B96B4FF000024FF000037F
:10323000C1E906233B6C1B685A1C3B6C1A6015E005
:10324000D7E90223104619464DA3D3E900230AF01B
:1032500087F90346002B00D107E0BB6B01229A627D
:103260003B6C1B685A1C3B6C1A6000BFC9E0FB6BCF
:10327000802B40F0C6803B6C1B68032B00F2C180A2
:103280000FF2040C5CF823F0993200080D330008AB
:1032900059330008D7330008BB6BD3E9002310462D
:1032A00019464FF00002384B0AF05AF90346002B3A
:1032B00000D1A6E0B96B4FF00002334BC1E9002307
:1032C000B96B4FF000024FF00003C1E90223BB6B62
:1032D000D3E90001BB6BD3E90223CDE90001CDE9BD
:1032E0000223022304934FF0000028494FF000020C
:1032F000264B06F09DFD02460B46B96BC1E906233D
:103300003B6C1B685A1C3B6C1A607AE0BB6BD3E9C0
:103310000223104619464FF000021C4B0AF020F918
:103320000346002B00D16CE0B96B4FF00002174B45
:10333000C1E90023B96B4FF00002144BC1E902232D
:10334000B96B4FF00002124BC1E906233B6C1B68BE
:103350005A1C3B6C1A6054E0BB6BD3E90223104645
:1033600019464FF000020E4B0AF0FAF80346002B04
:1033700018D146E0AFF30080000000000030764036
:103380000000000000309B40004085400040754038
:103390000080564000408F400080764000F08E4014
:1033A00000E08F40B96B4FF000021B4BC1E90023D6
:1033B000B96B4FF00002194BC1E90223B96B4FF012
:1033C00000024FF00003C1E906233B6C1B685A1C46
:1033D0003B6C1A6015E0D7E90223104619460CA38E
:1033E000D3E900230AF0BCF80346002B00D108E023
:1033F000BB6B01229A623B6C1B685A1C3B6C1A60C7
:1034000000BFBD46BDE8804004B07047AFF3008008
:103410000000000000309B400040754000E08F40FD
:1034200084B080B586B006AF07F1080C8CE80F00B9
:10343000FB6B402B40F082803B6C1B68012B3FD024
:10344000012B02D3022B62D0FDE0BB6BD3E900233A
:10345000104619464FF000027F4B0AF081F80346F0
:10346000002B00D169E0B96B4FF000027A4BC1E943
:103470000023B96B4FF000024FF00003C1E90223B3
:103480004FF00002744BCDE900234FF000024FF0E3
:103490000003CDE90223022304936DA1D1E90001C9
:1034A0004FF000026D4B06F0C3FC02460B46B96BB1
:1034B000C1E906233B6C1B685A1C3B6C1A603CE05C
:1034C000BB6BD3E900231046194661A3D3E900235F
:1034D0000AF046F80346002B00D12EE0B96B5CA33E
:1034E000D3E90023C1E90023B96B4FF000025B4B25
:1034F000C1E90223B96B4FF000024FF00003C1E9AC
:1035000006233B6C1B685A1C3B6C1A6015E0D7E91C
:103510000223104619464FF00002514B0AF020F8E2
:103520000346002B00D107E0BB6B01229A623B6C83
:103530001B685A1C3B6C1A6000BF84E0FB6B802B3D
:1035400040F081803B6C1B68012B3FD0012B02D3E4
:10355000022B62D077E0BB6BD3E9002310461946FB
:103560004FF000023C4B09F0FBFF0346002B00D15B
:1035700069E0B96B4FF00002374BC1E90023B96B2A
:103580004FF000024FF00003C1E902234FF00002A8
:10359000314BCDE900234FF000024FF00003CDE99D
:1035A0000223022304932AA1D1E900014FF0000273
:1035B0002A4B06F03DFC02460B46B96BC1E90623D7
:1035C0003B6C1B685A1C3B6C1A603CE0BB6BD3E93C
:1035D0000023104619461EA3D3E9002309F0C0FFBB
:1035E0000346002B00D12EE0B96B19A3D3E90023C9
:1035F000C1E90023B96B4FF00002184BC1E9022367
:10360000B96B4FF000024FF00003C1E906233B6C99
:103610001B685A1C3B6C1A6015E0D7E90223104660
:1036200019464FF000020E4B09F09AFF0346002B9B
:1036300000D108E0BB6B01229A623B6C1B685A1CEC
:103640003B6C1A6000BFBD46BDE8804004B07047C7
:1036500000000000009496400040854000E08F404C
:1036600000E09A40AFF3008084B080B586B006AF2A
:1036700007F1080C8CE80F00FB6B402B40F06481D5
:103680003B6C1B68062B00F2C48201A252F823F0A7
:10369000AD360008FB3600084937000895370008AA
:1036A0000738000885380008D3380008BB6BD3E919
:1036B0000023104619464FF000029B4B09F050FFC3
:1036C0000346002B00D11AE1B96B4FF00002964B74
:1036D000C1E90023B96B4FF000024FF00003C1E9CC
:1036E0000223B96B4FF00002904BC1E906233B6CFB
:1036F0001B685A1C3B6C1A6001E1BB6BD3E90023C9
:10370000104619464FF00002894B09F029FF034685
:10371000002B00D1F3E0B96B4FF00002844BC1E9FC
:103720000023B96B4FF000027F4BC1E90223B96B54
:103730004FF000024FF00003C1E906233B6C1B6809
:103740005A1C3B6C1A60DAE0BB6BD3E900231046CD
:1037500019466BA3D3E9002309F002FF0346002BAF
:1037600000D1CCE0B96B66A3D3E90023C1E9002303
:10377000B96B4FF000026C4BC1E90223B96B4FF0FB
:1037800000026A4BC1E906233B6C1B685A1C3B6C68
:103790001A60B4E0BB6BD3E90023104619464FF022
:1037A0000002644B09F0DCFE0346002B00D1A6E0CA
:1037B000B96B4FF000025F4BC1E90023B96B4FF0CA
:1037C00000025D4BC1E90223BB6BD3E90001BB6B77
:1037D000D3E90223CDE90001CDE9022302230493BA
:1037E00049A1D1E900014FF00002544B06F020FB43
:1037F00002460B46B96BC1E906233B6C1B685A1C99
:103800003B6C1A607BE0BB6BD3E902231046194680
:103810004FF00002494B09F0A3FE0346002B00D1F4
:103820006DE0B96B38A3D3E90023C1E90023B96B7C
:103830004FF00002414BC1E90223BB6BD3E9000109
:10384000BB6BD3E90223CDE90001CDE902230223BA
:1038500004932FA1D1E900014FF00002384B06F08C
:10386000E7FA02460B46B96BC1E90623B96B4FF084
:103870000002344BC1E908233B6C1B685A1C3B6CAB
:103880001A603CE0BB6BD3E902231046194622A321
:10389000D3E9002309F064FE0346002B00D12EE09B
:1038A000B96B1BA3D3E90023C1E90023B96B1AA3A9
:1038B000D3E90023C1E90223B96B4FF000024FF0B6
:1038C0000003C1E906233B6C1B685A1C3B6C1A6061
:1038D00015E0D7E902231046194611A3D3E90023C6
:1038E00009F03EFE0346002B00D107E0BB6B01222E
:1038F0009A623B6C1B685A1C3B6C1A6000BF88E1E3
:1039000000000000004491400000000000EC9340E3
:1039100000000000009496400000000000B88F40B6
:103920000000000000909A40004075400080464032
:1039300000408540004095400098824000908A40B9
:1039400000E08F4000005940FB6B802B40F061810C
:103950003B6C1B68062B00F25C810FF2080C5CF8D4
:1039600023F000BF81390008CF3900081D3A000854
:10397000693A0008DB3A0008593B0008A73B0008F9
:10398000BB6BD3E90023104619464FF00002944B5D
:1039900009F0E6FD0346002B00D13AE1B96B4FF088
:1039A00000028F4BC1E90023B96B4FF000024FF0CA
:1039B0000003C1E90223B96B4FF00002894BC1E952
:1039C00006233B6C1B685A1C3B6C1A6021E1BB6BE5
:1039D000D3E90023104619464FF00002824B09F04C
:1039E000BFFD0346002B00D113E1B96B4FF000027D
:1039F0007D4BC1E90023B96B4FF00002784BC1E960
:103A00000223B96B4FF000024FF00003C1E9062317
:103A10003B6C1B685A1C3B6C1A60FAE0BB6BD3E929
:103A200000231046194666A3D3E9002309F098FD48
:103A30000346002B00D1ECE0B96B61A3D3E900236E
:103A4000C1E90023B96B4FF00002654BC1E90223C5
:103A5000B96B4FF00002634BC1E906233B6C1B6856
:103A60005A1C3B6C1A60D4E0BB6BD3E900231046B0
:103A700019464FF000025D4B09F072FD0346002B22
:103A800000D1C6E0B96B4FF00002584BC1E90023EA
:103A9000B96B4FF00002564BC1E90223BB6BD3E96F
:103AA0000001BB6BD3E90223CDE90001CDE902237C
:103AB0000223049344A1D1E900014FF000024D4BD1
:103AC00006F0B6F902460B46B96BC1E906233B6C1A
:103AD0001B685A1C3B6C1A609BE0BB6BD3E902234A
:103AE000104619464FF00002424B09F039FD0346DB
:103AF000002B00D18DE0B96B33A3D3E90023C1E9DA
:103B00000023B96B4FF000023A4BC1E90223BB6BB3
:103B1000D3E90001BB6BD3E90223CDE90001CDE974
:103B20000223022304932AA1D1E900014FF00002ED
:103B3000314B06F07DF902460B46B96BC1E906230D
:103B4000B96B4FF000022D4BC1E908233B6C1B6899
:103B50005A1C3B6C1A605CE0BB6BD3E90223104635
:103B600019464FF00002244B09F0FAFC0346002BE3
:103B700000D14EE0B96B16A3D3E90023C1E90023BD
:103B8000B96B4FF000021C4BC1E90223B96B4FF037
:103B900000024FF00003C1E906233B6C1B685A1C6E
:103BA0003B6C1A6035E0D7E90223104619460AA398
:103BB000D3E9002309F0D4FC0346002B20D128E0F0
:103BC00000000000004491400000000000EC934021
:103BD00000000000009496400000000000909A4011
:103BE00000407540008046400040854000409540C0
:103BF0000098824000908A4000E08F4000005940C9
:103C0000BB6B01229A623B6C1B685A1C3B6C1A60AE
:103C100000BFBD46BDE8804004B07047AFF30080F0
:103C200084B080B586B006AF07F1080C8CE80F00B1
:103C3000FB6B402B40F0AD803B6C1B68032B00F20C
:103C40006B8101A252F823F0593C0008A73C000800
:103C5000193D0008653D0008BB6BD3E90023104601
:103C600019464FF000029C4B09F07AFC0346002BEA
:103C700000D18DE0B96B4FF00002974BC1E90023F2
:103C8000B96B4FF000024FF00003C1E90223B96B9A
:103C90004FF00002914BC1E906233B6C1B685A1C94
:103CA0003B6C1A6074E0BB6BD3E9002310461946E5
:103CB0004FF000028A4B09F053FC0346002B00D161
:103CC00066E0B96B4FF00002854BC1E90023B96B88
:103CD0004FF00002834BC1E902234FF00002804BFA
:103CE000CDE900234FF000027E4BCDE902230223F1
:103CF00004934FF000007C494FF00002784B06F02F
:103D000097F802460B46B96BC1E906233B6C1B686A
:103D10005A1C3B6C1A603BE0D7E902231046194657
:103D200069A3D3E9002309F01BFC0346002B00D153
:103D30002EE0B96B4FF000026B4BC1E90023B96B69
:103D40004FF00002664BC1E90223B96B4FF000024D
:103D50004FF00003C1E906233B6C1B685A1C3B6C07
:103D60001A6015E0D7E902231046194658A3D3E993
:103D7000002309F0F5FB0346002B00D107E0BB6BE5
:103D800001229A623B6C1B685A1C3B6C1A6000BF94
:103D9000C2E0FB6B802B40F0BF803B6C1B68032BA9
:103DA00000F2BA800FF2040C5CF823F0BD3D00086D
:103DB0000B3E00087D3E0008ED3E0008BB6BD3E9DA
:103DC0000023104619464FF00002434B09F0C8FB90
:103DD0000346002B00D19FE0B96B4FF000023E4B31
:103DE000C1E90023B96B4FF000024FF00003C1E9B5
:103DF0000223B96B4FF00002384BC1E906233B6C3C
:103E00001B685A1C3B6C1A6086E0BB6BD3E900232D
:103E1000104619464FF00002314B09F0A1FB034652
:103E2000002B00D178E0B96B4FF000022C4BC1E9B8
:103E30000023B96B4FF000022A4BC1E902234FF077
:103E40000002274BCDE900234FF00002254BCDE9BE
:103E50000223022304934FF0000023494FF0000295
:103E60001F4B05F0E5FF02460B46B96BC1E906237F
:103E70003B6C1B685A1C3B6C1A604DE0D7E902236F
:103E80001046194610A3D3E9002309F069FB034645
:103E9000002B00D140E0B96B4FF00002124BC1E99A
:103EA0000023B96B4FF000020D4BC1E90223B96B3F
:103EB0004FF000024FF00003C1E906233B6C1B6882
:103EC0005A1C3B6C1A6027E0000000000030944050
:103ED0000000000000909A4000408540008046406D
:103EE00000E08F400040754000409540D7E9022334
:103EF000104619460CA3D3E9002309F031FB034611
:103F0000002B00D108E0BB6B01229A623B6C1B685E
:103F10005A1C3B6C1A6000BFBD46BDE8804004B02F
:103F2000704700BFAFF300800000000000909A408F
:103F300084B080B586B006AF07F1080C8CE80F009E
:103F4000FB6B802B40F0D5803B6C1B68042B00F290
:103F5000C88101A252F823F06D3F0008BB3F000862
:103F60000740000879400008C5400008BB6BD3E952
:103F70000023104619464FF00002994B09F0F0FA61
:103F80000346002B00D1B3E0B96B4FF00002944B15
:103F9000C1E90023B96B4FF000024FF00003C1E903
:103FA0000223B96B4FF000028E4BC1E906233B6C34
:103FB0001B685A1C3B6C1A609AE0BB6BD3E9002368
:103FC000104619464FF00002874B09F0C9FA034624
:103FD000002B00D18CE0B96B4FF00002824BC1E99D
:103FE0000023B96B76A3D3E90023C1E90223B96B9F
:103FF0004FF000027D4BC1E906233B6C1B685A1C45
:104000003B6C1A6074E0BB6BD3E90223104619467F
:104010004FF00002764B09F0A3FA0346002B00D1C3
:1040200066E0B96B4FF000026F4BC1E90023B96B3A
:104030004FF000026F4BC1E90223BB6BD3E90001D3
:10404000BB6BD3E90223CDE90001CDE902230223B2
:1040500004935DA1D1E900014FF00002624B05F02D
:10406000E7FE02460B46B96BC1E906233B6C1B68B1
:104070005A1C3B6C1A603BE0D7E9022310461946F4
:1040800053A3D3E9002309F06BFA0346002B00D1B8
:104090002EE0B96B4CA3D3E90023C1E90023B96B2F
:1040A0004FF00002504BC1E90223B96B4FF0000200
:1040B0004FF00003C1E906233B6C1B685A1C3B6CA4
:1040C0001A6015E0D7E902231046194642A3D3E946
:1040D000002309F045FA0346002B00D107E0BB6B33
:1040E00001229A623B6C1B685A1C3B6C1A6000BF31
:1040F000F7E0FB6B402B40F0F4803B6C1B68042B1B
:1041000000F2EF800FF2040C5CF823F0214100086C
:104110006F410008F94100086B420008B7420008EF
:10412000BB6BD3E90023104619464FF000022C4B1D
:1041300009F016FA0346002B00D1D2E0B96B4FF01C
:104140000002274BC1E90023B96B4FF000024FF08A
:104150000003C1E90223B96B4FF00002214BC1E912
:1041600006233B6C1B685A1C3B6C1A60B9E0BB6BA6
:10417000D3E90023104619464FF000021A4B09F00C
:10418000EFF90346002B00D1ABE0B96B4FF0000212
:10419000154BC1E90023B96B09A3D3E90023C1E999
:1041A0000223B96B4FF00002104BC1E906233B6CB0
:1041B0001B685A1C3B6C1A6093E000BFAFF3008091
:1041C0000000000000E06F40000000000018954073
:1041D00000000000007494400000000000909A402D
:1041E00000E887400080464000E08F400080564055
:1041F0000040854000A08440BB6BD3E902231046F9
:1042000019464FF000023E4B09F0AAF90346002B75
:1042100000D166E0B96B4FF000023A4BC1E90023D0
:10422000B96B4FF00002364BC1E90223BB6BD3E9F7
:104230000001BB6BD3E90223CDE90001CDE90223E4
:10424000022304934FF000002F494FF000022D4B42
:1042500005F0EEFD02460B46B96BC1E906233B6C47
:104260001B685A1C3B6C1A603BE0D7E902231046DE
:1042700019461FA3D3E9002309F072F90346002B66
:1042800000D12EE0B96B4FF000021F4BC1E90023B3
:10429000B96B4FF000021B4BC1E90223B96B4FF021
:1042A00000024FF00003C1E906233B6C1B685A1C57
:1042B0003B6C1A6015E0D7E90223104619460EA39D
:1042C000D3E9002309F04CF90346002B00D108E0A4
:1042D000BB6B01229A623B6C1B685A1C3B6C1A60D8
:1042E00000BFBD46BDE8804004B07047AFF300801A
:1042F00000000000007494400000000000909A400C
:104300000040854000E08F4000409540AFF30080C2
:1043100084B0B0B58CB00CAF07F1100C8CE80F0076
:104320007B6C062B00F2AC8001A252F823F000BF98
:104330004D43000879430008A5430008D143000815
:10434000FD43000829440008554400083B6C0893CD
:10435000BB6C09934F4B0A936C4607F120050FCDB8
:104360000FC495E80F0084E80F0007F1100C9CE8DB
:104370000F00FEF781FB84E03B6C0893BB6C099354
:10438000444B0A936C4607F120050FCD0FC495E806
:104390000F0084E80F0007F1100C9CE80F00FEF7F7
:1043A0009FFD6EE03B6C0893BB6C0993394B0A93FD
:1043B0006C4607F120050FCD0FC495E80F0084E887
:1043C0000F0007F1100C9CE80F00FEF789FE58E083
:1043D0003B6C0893BB6C09932E4B0A936C4607F118
:1043E00020050FCD0FC495E80F0084E80F0007F1FA
:1043F000100C9CE80F00FFF713F842E03B6C0893A9
:10440000BB6C0993234B0A936C4607F120050FCD33
:104410000FC495E80F0084E80F0007F1100C9CE82A
:104420000F00FFF721F92CE03B6C0893BB6C09935C
:10443000184B0A936C4607F120050FCD0FC495E881
:104440000F0084E80F0007F1100C9CE80F00FFF745
:10445000E7FB16E03B6C0893BB6C09930D4B0A938A
:104460006C4607F120050FCD0FC495E80F0084E8D6
:104470000F0007F1100C9CE80F00FFF759FD00E05A
:1044800000BF044B1B681846BD46BDE8B04004B0F1
:10449000704700BFAC05002080B483B000AF034676
:1044A0003960FB713B6812221A80034B18460C37A7
:1044B000BD465DF8047B70479800002080B483B04F
:1044C00000AF03463960FB713B6804221A80034B3E
:1044D00018460C37BD465DF8047B7047B8000020D5
:1044E00080B582B000AF03463960FB71FB79002BC9
:1044F00005D1084808493A6801F08AFB04E00748FA
:1045000005493A6801F084FB034B18460837BD465D
:1045100080BD00BFB8DC0008580E0020DCDC0008BD
:1045200080B582B000AF03463960FB71044805498D
:104530003A6801F06DFB034B18460837BD4680BD55
:1045400000DD0008580E002080B582B000AF0346A1
:104550003960FB71FB79002B05D1084808493A689E
:1045600001F056FB04E0074805493A6801F050FBAA
:10457000034B18460837BD4680BD00BF14DD000858
:10458000580E002024DD000880B582B000AF03463D
:104590003960FB71FB79002B05D1084808493A685E
:1045A00001F036FB04E0054805493A6801F030FBAC
:1045B000034B18460837BD4680BD00BF34DD0008F8
:1045C000580E002080B582B000AF03463960FB7101
:1045D000FB79002B05D1084808493A6801F018FB1F
:1045E00004E0054805493A6801F012FB034B184600
:1045F0000837BD4680BD00BF40DD0008580E0020D2
:1046000080B582B000AF78600B46FB70FA787B68AB
:10461000104698470837BD4680BD00BF0000000027
:1046200080B58AB000AF7860396000237B620023D8
:104630003B6207F10C0300221A60043300221A6067
:10464000043300221A60043300221A60043300226B
:104650001A6004333B687B6200233B6226E0796A80
:10466000254BA3FB0123DA0813469B0013445B0090
:10467000CA1AD2B207F10C013B6A0B441A70786A6D
:1046800008F072FC02460B461046194618A3D3E9FF
:10469000002308F0DFFC02460B461046194608F0DE
:1046A0009BFF03467B623B6A01333B627B6A002BC4
:1046B000D5D13B68002B03D17B683020984713E0AD
:1046C0003B6A013B3B620CE007F10C023B6A13447E
:1046D0001B783033DAB27B68104698473B6A013B5F
:1046E0003B623B6A002BEFDA2837BD4680BD00BF36
:1046F0009A9999999999B93FCDCCCCCCAFF30080D8
:1047000080B582B000AF786039603B68002B09DA71
:104710007B682D2098473B685B4278681946FFF715
:104720007FFF04E03B6878681946FFF779FF083798
:10473000BD4680BD80B584B000AF7860396000238D
:10474000FB600023FB6009E0FB683A6813441A78B9
:104750007B6810469847FB680133FB60FB683A684A
:1047600013441B78002B02D0FB68132BECDD1037B1
:10477000BD4680BD80B582B000AF78607B680D20FB
:1047800098477B680A2098470837BD4680BD00BF20
:1047900080B584B000AFF860B9607A60F868B96835
:1047A000FFF7C8FFFB682C209847F8687968FFF787
:1047B000A7FFFB682C2098471037BD4680BD00BF7F
:1047C000B0B586B000AFF860B9607A604FF0000213
:1047D0004FF00003C7E90423F86808F0D5FB04464E
:1047E0000D46BB689B00184608F0BEFB02460B4610
:1047F0002046294608F058FD02460B4614461D4641
:10480000786808F0D3FB02460B462046294608F09C
:1048100021FC02460B461046194609A3D3E90023A2
:1048200008F018FC02460B46C7E90423D7E9042325
:10483000104619461837BD46B0BD00BFAFF3008023
:10484000112D4454FB21094080B400AFBD465DF8F2
:10485000047B704780B582B000AF0346FB71FB79E3
:10486000184600F009FA0837BD4680BD80B582B011
:1048700002AF054B009305480121054A054BFCF7A3
:10488000B9FEBD4680BD00BF00000020D00700205B
:104890007C0000203401002080B400AFBD465DF8EC
:1048A000047B704780B500AFFFF7CEFF80BD00BF2F
:1048B00080B500AFFFF7C8FF80BD00BF80B500AF77
:1048C000FFF7C2FF80BD00BF80B500AFFFF7BCFFA0
:1048D00080BD00BF80B400AFBD465DF8047B70476B
:1048E00080B400AFBD465DF8047B704780B400AF74
:1048F000BD465DF8047B704780B500AF014801F00C
:10490000DDF980BDD007002080B500AF074B9B7A52
:10491000002B0AD0064B064A126822F006021A60E3
:1049200000F0FEFA0148FCF793FD80BDD00700209F
:1049300010ED00E080B487B000AF786039600023EC
:104940007B6100233B610023FB6000237B6176E0F9
:104950007B69012202FA03F33B613B681A683B69F9
:104960001340FB60FA683B699A4265D17B681A681C
:104970007B695B00032101FA03F3DB431A407B6888
:104980001A607B681A683B681B7919467B695B0073
:1049900001FA03F31A437B681A603B681B79012B09
:1049A00003D03B681B79022B2ED17B689A687B6908
:1049B0005B00032101FA03F3DB431A407B689A6032
:1049C0007B689A683B685B7919467B695B0001FAF2
:1049D00003F31A437B689A607B685A687B699BB2D1
:1049E000012101FA03F3DB431A407B685A607B68BC
:1049F0005A683B689B7919467B699BB201FA03F3BD
:104A00009BB21A437B685A607B68DA687B699BB209
:104A10005B00032101FA03F3DB431A407B68DA6091
:104A20007B68DA683B68DB7919467B695B0001FAD1
:104A300003F31A437B68DA607B6901337B617B692E
:104A40000F2B85D91C37BD465DF8047B704700BF2E
:104A500080B483B000AF78607B684FF6FF721A6055
:104A60007B6800221A717B6800225A717B680022E1
:104A70009A717B680022DA710C37BD465DF8047BC1
:104A8000704700BF80B483B000AF78600B467B8076
:104A90007B687A881A830C37BD465DF8047B7047C3
:104AA00080B483B000AF78600B467B807B687A88E7
:104AB0005A830C37BD465DF8047B704780B485B0DF
:104AC00000AF786013460A467A807B700023FB6053
:104AD0000023BB607A787B8803F007039B0002FA0F
:104AE00003F3FB607B88DB089BB21A467B88DB08FC
:104AF0009BB219467B68083153F821107B8803F07C
:104B000007039B000F2000FA03F3DB4319407B6887
:104B1000083243F822107B88DB089BB21A467B6878
:104B2000083253F82220FB681343BB607B88DB0804
:104B30009BB21A467B680832B96843F822101437D2
:104B4000BD465DF8047B704780B400AF0023184673
:104B5000BD465DF8047B704780B400AF0023184663
:104B6000BD465DF8047B704780B485B000AFF86047
:104B7000B9607A60FB68232B74D801A252F823F045
:104B8000654C0008654C0008654C0008654C000841
:104B9000654C0008654C0008654C0008654C000831
:104BA000654C0008654C0008654C0008654C000821
:104BB000654C0008654C0008654C0008654C000811
:104BC000654C0008654C0008654C0008654C000801
:104BD000654C0008654C0008654C0008654C0008F1
:104BE000654C0008654C0008654C0008654C0008E1
:104BF000654C0008654C0008654C0008654C0008D1
:104C0000654C0008114C0008654C0008654C000814
:104C1000184B1B68DAB2BB681A70BB680133154ABF
:104C20001268120AD2B21A70BB680233114A1268B3
:104C3000120CD2B21A70BB6803330E4A1268120EFD
:104C4000D2B21A70BB6804330A4A12791A70BB6870
:104C50000533084A52791A70BB680633054A9279BF
:104C60001A7000E000BF002318461437BD465DF8F7
:104C7000047B7047BC00002080B582B000AF0346C3
:104C8000FB71FB1D1846012100F004F80837BD46F2
:104C900080BD00BF80B485B000AF7860396000236C
:104CA000FB6017E0114B1B687968FA680A441178B9
:104CB0000F4AD1540D4B1B685A1C0C4B1A60FB68F1
:104CC0000133FB60094B1B68B3F5006F02D1074B42
:104CD00000221A60FA683B689A42E3D30023184620
:104CE0001437BD465DF8047B704700BFCC0500203B
:104CF000180F002080B485B000AF786039600023C1
:104D0000FB601EE0144B1B687968FA680A4411784E
:104D1000124AD154104B1B685A1C0F4B1A600E4B91
:104D20001B68802B02D10C4B00221A600A4B1A68B8
:104D30000B4B1B689A4201D1022307E0FB68013349
:104D4000FB60FA683B689A42DCD3002318461437AC
:104D5000BD465DF8047B7047540E0020C00D002056
:104D6000400E002080B582B000AF786002207968E4
:104D700000F062F80320796800F05EF80837BD465D
:104D800080BD00BF80B586B000AFF860B9607A60C2
:104D90007B68002B0DD1FB68022B03D1154B1B68E0
:104DA0007B6121E0FB68032B1ED1134B1B687B61E9
:104DB0001AE07B68012B17D1B8684FF0000108F0AA
:104DC00027FF0346002B02D04FF00003BB60FB68B7
:104DD000022B03D1074BBA681A6005E0FB68032B6E
:104DE00002D1054BBA681A607B6918461837BD4670
:104DF00080BD00BFB0050020B405002080B582B0A2
:104E000000AF786078684FF000010022FFF7BAFF2A
:104E1000034618460837BD4680BD00BF80B582B046
:104E200000AF78603960786839680122FFF7AAFF1F
:104E30000837BD4680BD00BF80B584B000AF786044
:104E400039604FF00003FB607868FFF7D7FF034637
:104E50001846396808F034FC0346FB60F8684FF0E8
:104E6000000108F0E9FE0346002B04D07868F968D9
:104E7000FFF7D4FF04E078684FF00001FFF7CEFFA2
:104E80001037BD4680BD00BF80B582B000AF7860EE
:104E9000786808F0C7FC03461846094908F0CEFDBB
:104EA000034602201946FFF7B9FF00BF022000F0B9
:104EB00009F80346002BF9D00837BD4680BD00BF76
:104EC00000007A4480B582B000AF78607868FFF760
:104ED00095FF034618464FF0000108F08FFE034689
:104EE000002B01D0012300E0002318460837BD46FF
:104EF00080BD00BF80B582B000AF78600320FFF7AF
:104F0000E1FF0346002B05D003207968FFF786FFF9
:104F1000012300E0002318460837BD4680BD00BFCE
:104F200080B500AF114B114A126842F001021A60BD
:104F30000E4B00229A600D4A0C4B1B6823F08473C1
:104F400023F480331360094B094A5A60074B074A20
:104F5000126822F480221A60044B0022DA6000F00A
:104F600087F8044B4FF000629A6080BD0038024021
:104F70001030002400ED00E080B487B000AF0023C3
:104F80003B6100237B610223FB600023BB600223A3
:104F90007B60324B9B6803F00C033B613B69042B45
:104FA00007D0082B09D0002B3FD12D4B2D4A1A607A
:104FB0003FE02B4B2C4A1A603BE0284B5B6803F424
:104FC00080039B0DBB60254B5B6803F03F037B6058
:104FD000BB68002B0DD0244A7B68B2FBF3F21F4B59
:104FE000596847F6C0730B409B0903FB02F37B61D2
:104FF0000CE01C4A7B68B2FBF3F2184B596847F689
:10500000C0730B409B0903FB02F37B61134B5B688E
:1050100003F440331B0C01335B00FB607A69FB68CF
:10502000B2FBF3F20E4B1A6003E00D4B0D4A1A600F
:1050300000BF0A4B9B6803F0F0031B090B4AD35CCB
:10504000DBB23B61064B1A683B69DA40044B1A60DD
:105050001C37BD465DF8047B704700BF0038024036
:10506000D80000200024F40000127A00DC000020A8
:1050700080B483B000AF00237B6000233B60354BDE
:10508000344A126842F480321A60324B1B6803F4CF
:1050900000333B607B6801337B603B68002B03D1AE
:1050A0007B68B3F5A06FF0D12A4B1B6803F4003383
:1050B000002B02D001233B6001E000233B603B68F2
:1050C000012B42D1234B234A126C42F080521A64C6
:1050D000214B214A126842F480421A601D4B1D4A3E
:1050E00092689A601B4B1B4A926842F400429A6095
:1050F000184B184A926842F4A0529A60154B174A0E
:105100005A60144B134A126842F080721A6000BF52
:10511000104B1B6803F00073002BF9D0104B40F2CA
:1051200005621A600B4B0B4A926822F003029A60E8
:10513000084B084A926842F002029A6000BF054B91
:105140009B6803F00C03082BF9D10C37BD465DF8C2
:10515000047B70470038024000700040085440074C
:10516000003C024080B485B000AF78603960002315
:10517000FB607B681B68FB60FA68244B1340FB6094
:105180003B681A683B68DB681A433B685B691A43F3
:105190003B689B691A433B68DB691A433B681B6A9F
:1051A0001A433B685B6A1A433B689B6A1A433B6835
:1051B0005B6B1A433B689B6B1343FA681343FB60BA
:1051C0007B68FA681A607B685B69FB60FB6823F0A8
:1051D0000703FB603B68DA6A3B681B6B1343FA68A2
:1051E0001343FB607B68FA685A613B681A697B6805
:1051F0005A603B685A687B689A603B689A687B682B
:10520000DA601437BD465DF8047B70473F801CF0C0
:1052100080B483B000AF78600B46FB70FB78002B46
:1052200006D07B681B6843F001027B681A6005E0CA
:105230007B681B6823F001027B681A600C37BD464F
:105240005DF8047B704700BF80B584B000AF786024
:1052500001200121FDF7E6F84FF4D853BB6003238A
:105260007B7302233B730023BB730023FB7307F1A3
:10527000080320481946FFF75DFB1E4808210A2253
:10528000FFF71CFC1B4809210A22FFF717FC1948ED
:105290000B210A22FFF712FC16480C210A22FFF705
:1052A0000DFC4FF48063BB600123BB730123FB73D0
:1052B00003237B7307F108030E481946FFF73AFBF7
:1052C0000C480A210A22FFF7F9FB4FF48040012124
:1052D000FDF702F980200121FDF7C2F84FF0805060
:1052E0000121FDF717F9012002F0D6FB1037BD466A
:1052F00080BD00BF0000024080B584B000AF786080
:105300004FF4C06002F0D6FB43233B7301237B7351
:105310000323BB730123FB7307F10C03184602F050
:10532000DBFB1037BD4680BD80B485B000AF786030
:105330000023FB607A6813461B019B1ADB001A46A8
:105340000A4BA3FB0213D21A520813449B08BB60FA
:10535000FB680133FB60FA68BB689A4200D900E041
:10536000F6E71437BD465DF8047B70472549922463
:1053700080B582B000AF78607B684FF47A7202FB30
:1053800003F31846FFF7D0FF0837BD4680BD00BFC6
:1053900080B584B000AF786039600023FB733B6850
:1053A0005B78092B39D801A252F823F0FD5300088D
:1053B000115400081B540008075400081B5400082F
:1053C000DF530008D55300081B540008F3530008AE
:1053D000E95300087868396800F036F922E0786807
:1053E000396800F00DFA1DE07868396800F046FA77
:1053F00018E07868396800F0BBFA13E0786839681B
:1054000000F0E6FA0EE07868396800F009FB09E080
:105410007868396800F06AFB04E07868396800F061
:10542000D3FB00BFFB7B18461037BD4680BD00BFD5
:1054300080B584B000AF786039600023FB737B686F
:1054400093F81231032B1CD13B689B88DBB2012BF4
:1054500011D87B68D3F8E0359B687868396898473D
:105460003B68DB88002B0BD1FB7B002B08D17868D5
:1054700002F00CFE0AE07868396800F0A5FB05E050
:1054800004E07868396800F09FFB00BFFB7B18469A
:105490001037BD4680BD00BF80B584B000AF7860D6
:1054A00039600023FB733B689B88BB733B685B7868
:1054B000012B39D0032B02D0002B6BD0BCE07B68D2
:1054C00093F81231022B02D0032B0DD026E0BB7BC8
:1054D000002B08D0BB7B802B05D0BB7B786819469E
:1054E00002F0DAFC1FE01EE03B685B88002B0AD16B
:1054F000BB7B002B07D0BB7B802B04D0BB7B7868A9
:10550000194602F0C9FC7B68D3F8E0359B687868DF
:1055100039689847786802F0B9FD04E0786839681E
:1055200000F052FB00BF87E07B6893F81231022B3A
:1055300002D0032B0DD027E0BB7B002B08D0BB7B18
:10554000802B05D0BB7B7868194602F0A5FC20E0D3
:105550001FE03B685B88002B15D1BB7B002B0ED076
:10556000BB7B802B0BD0BB7B7868194602F0CEFC4E
:105570007B68D3F8E0359B68786839689847786825
:1055800002F084FD05E004E07868396800F01CFB57
:1055900000BF51E07B6893F81231022B02D0032B3D
:1055A0000DD043E0BB7B002B08D0BB7B802B05D00C
:1055B000BB7B7868194602F06FFC3CE03BE0BB7BAC
:1055C0005BB2002B15DABB7B03F07F0279681346D0
:1055D0009B001344DB000B4403F58C739B78002B7A
:1055E00003D0184B01221A601AE0164B00221A60F1
:1055F00016E0BB7B5BB2002B12DBBA7B79681346EB
:105600009B001344DB000B4403F55C739B78002B79
:1056100003D00C4B01221A6002E00A4B00221A60F0
:1056200078680849022202F0C9FC04E07868396809
:1056300000F0CAFA00BF00BFFB7B18461037BD461A
:1056400080BD00BFB805002080B584B000AF786091
:1056500039603B685B881B0A9BB2013B062B00F25A
:10566000B18001A252F823F085560008B756000811
:10567000E1560008C5570008C5570008B157000893
:10568000BB5700087B68D3F8E8351B687A689178C7
:1056900007F10A02084611469847F8603B68DB8824
:1056A000402B04D07B6893F81231012B02D10823E0
:1056B0007B818CE08BE07B68D3F8E0359B6A7A686D
:1056C000917807F10A02084611469847F860FB688E
:1056D000013302221A707B68FA68C3F8EC2576E081
:1056E0003B685B88DBB2052B5CD801A252F823F043
:1056F00009570008235700083D570008575700086E
:10570000715700088B5700087B68D3F8E8355B6851
:105710007A68917807F10A02084611469847F860BE
:1057200045E07B68D3F8E8359B687A68917807F1A3
:105730000A02084611469847F86038E07B68D3F8BB
:10574000E835DB687A68917807F10A020846114665
:105750009847F8602BE07B68D3F8E8351B697A68D6
:10576000917807F10A02084611469847F8601EE052
:105770007B68D3F8E8355B697A68917807F10A02AB
:10578000084611469847F86011E07B68D3F8E83581
:105790009B697A68917807F10A0208461146984792
:1057A000F86004E07868396800F00EFA24E00EE052
:1057B0007868396800F008FA1EE07868396800F007
:1057C00003FA19E07868396800F0FEF914E07B8983
:1057D000002B11D03B68DB88002B0DD03B68DA88AA
:1057E0007B899A4238BF13469BB27B817B8978685C
:1057F000F9681A4602F0E2FB1037BD4680BD00BFD3
:1058000080B584B000AF786039603B689B88002B1E
:105810002DD13B68DB88002B29D13B685B88DBB24C
:1058200003F07F03FB737B6893F81231032B04D1E1
:105830007868396800F0C8F918E07B68FA7B83F86B
:105840001321FB7B7868194602F09AFB786802F016
:105850001DFCFB7B002B04D07B68022283F8122105
:1058600004E07B68012283F8122104E003E07868F9
:10587000396800F0A9F91037BD4680BD80B582B007
:1058800000AF786039603B685B88DAB2374B1A70DA
:10589000364B1B78012B04D97868396800F094F9ED
:1058A00060E07B6893F81231022B02D0032B1BD0EF
:1058B00053E02E4B1B78002B12D02C4B1A787B68B0
:1058C00083F810217B68032283F81221274B1B7871
:1058D00078681946FCF740F8786802F0D7FB41E099
:1058E000786802F0D3FB3DE0204B1B78002B12D1EF
:1058F0007B68022283F812211C4B1A787B6883F89C
:1059000010211A4B1B7878681946FCF73DF8786827
:1059100002F0BCFB20E07B6893F81021134B1B784E
:105920009A4215D07B6893F8103178681946FCF7D5
:105930002BF80E4B1A787B6883F810210B4B1B78E1
:1059400078681946FCF708F8786802F09FFB03E0D6
:10595000786802F09BFB05E004E07868396800F0A5
:1059600033F900BF0837BD4680BD00BFC405002025
:1059700080B582B000AF786039603B68DB88012B6E
:1059800004D07868396800F01FF91BE07B6893F851
:105990001231022B02D0032B06D00EE078680B499F
:1059A000012202F00BFB0DE07B6803F58873786839
:1059B0001946012202F002FB04E07868396800F021
:1059C00003F900BF0837BD4680BD00BFBC050020FD
:1059D00080B582B000AF786039607B6893F812318F
:1059E000023B012B11D87B68D3F81431002B03D074
:1059F0000A4B03221A6002E0084B01221A60786801
:105A00000649012202F0DAFA04E07868396800F009
:105A1000DBF800BF0837BD4680BD00BFC0050020D1
:105A200080B584B000AF786039600023FB733B68B9
:105A30005B88012B0ED17B680122C3F814217B689F
:105A4000D3F8E0359B68786839689847786802F041
:105A50001DFB48E03B685B88022B44D13B689B8878
:105A6000DBB2002B3FD17B681B695B68BB603B6886
:105A70009B881B0A9BB2FB73FB7B013B042B2BD83F
:105A800001A252F823F000BF9D5A0008A95A00084D
:105A9000B55A0008C15A0008CD5A00083B7A0122C5
:105AA00062F306133B7217E03B7A022262F306139D
:105AB0003B7211E03B7A032262F306133B720BE068
:105AC0003B7A042262F306133B7205E03B7A05221F
:105AD00062F306133B7200BF7B681B69BA685A60A9
